:020000040800F2
:1000000058E7012069020008710200087302000825
:10001000750200087702000879020008000000005D
:10002000000000000000000000000000512D00084A
:100030007D02000800000000E12C0008752D00087A
:10004000830200088302000883020008830200087C
:10005000830200088302000883020008830200086C
:10006000830200088302000883020008830200085C
:10007000830200088302000883020008830200084C
:10008000830200088302000883020008830200083C
:10009000830200088302000883020008830200082C
:1000A000830200088302000883020008830200081C
:1000B000830200088302000883020008830200080C
:1000C00083020008830200088302000883020008FC
:1000D00083020008793000088302000883020008C8
:1000E00083020008830200088302000883020008DC
:1000F00083020008830200088302000883020008CC
:1001000083020008830200088302000883020008BB
:10011000830200088302000883020008612E0008A1
:10012000830200088302000883020008830200089B
:10013000830200088302000883020008830200088B
:10014000830200088302000883020008830200087B
:10015000830200088302000883020008830200086B
:10016000830200088302000883020008830200085B
:1001700083020008830200088302000800000000D8
:10018000830200088302000800F002F800F05CF827
:100190000AA090E8000C82448344AAF10107DA45E2
:1001A00001D100F051F8AFF2090EBAE80F0013F0D8
:1001B000010F18BFFB1A43F001031847FC55040058
:1001C0001C5604000A444FF0000C10F8013B13F0D9
:1001D000070408BF10F8014B1D1108BF10F8015BA0
:1001E000641E05D010F8016B641E01F8016BF9D193
:1001F00013F0080F1EBF10F8014BAD1C0C1B09D1EA
:100200006D1E58BF01F801CBFAD505E014F8016B5B
:1002100001F8016B6D1EF9D59142D6D370470000ED
:100220000023002400250026103A28BF78C1FBD8FF
:10023000520728BF30C148BF0B6070471FB52CF074
:1002400025F81FBD10B510BD00F088F91146FFF765
:10025000F5FF25F069FD00F0A6F903B4FFF7F2FF02
:1002600003BC04F039FD00000948804709480047F5
:10027000FEE7FEE7FEE7FEE7FEE7FEE7FEE7FEE756
:10028000FEE7FEE704480549054A064B70470000B3
:100290004D2E0008890100085847012058E7012029
:1002A0005867012058670120704753EA020C00F09C
:1002B00069802DE9F04B4FF00006002B1FBFB3FA09
:1002C00083F503FA05F424FA05F65E4012BF1643DF
:1002D000B2FA82F502FA05F4C5F120051EBF22FA32
:1002E00005FC44EA0C04203556EA044C4FEA144459
:1002F00018BF641C4FF000084FF00009904271EBEA
:10030000030C39D3002919BFB1FA81F701FA07F6B6
:10031000B0FA80F700FA07F6C7F120071EBF20FAEF
:1003200007FC46EA0C062037B6FBF4FCA7EB0507F2
:10033000103F07F01F0BCBF120062CFA06F60CFA43
:100340000BFB44BFB3460026202FA4BF5E464FF0F0
:10035000000B5BEA060C08BF4FF0010B19EB0B0911
:1003600048EB0608ABFB027C06FB02CC0BFB03CC84
:10037000C01B71EB0C01C1E70B46024641464846E3
:10038000BDE8F08B13B5084318BF4FF0FF300146AE
:10039000AFF30080BDE81C40704740EA010302460D
:1003A00030B59B0710D14FF0013400E008C208C9F6
:1003B0001D1B9D4315EAC41FF8D013F0FF0102F87E
:1003C000011B0DD01B0AF8E711F8013B002B02F8C6
:1003D000013B05D011F8013B002B02F8013BF3D1A2
:1003E00030BD10B5431C02E010F8011B71B181074C
:1003F000FAD14FF0013202C88C1A8C4314EAC211B0
:10040000F9D0C01A0A0603D0C01E10BDC01A10BD14
:100410000A0401D0801E10BD0902FCD0401E10BD90
:1004200002F0FF0343EA032242EA024200F00AB864
:1004300002F0FF0343EA032242EA024200F024B83A
:100440004FF000020429C0F0128010F0030C00F0FD
:100450001B80CCF1040CBCF1020F18BF00F8012B7B
:10046000A8BF20F8022BA1EB0C0100F00DB85FEA49
:10047000C17C24BF00F8012B00F8012B48BF00F815
:10048000012B70474FF0000200B513469446964684
:10049000203922BFA0E80C50A0E80C50B1F1200197
:1004A000BFF4F7AF090728BFA0E80C5048BF0CC045
:1004B0005DF804EB890028BF40F8042B08BF7047A3
:1004C00048BF20F8022B11F0804F18BF00F8012B15
:1004D000704700000000000030B44FF0013C50F8BD
:1004E000042B51F8043BCCFA52F4D51A20D1FCB9B4
:1004F00050F8042B51F8043BCCFA52F4D51A17D11A
:10050000B4B950F8042B51F8043BCCFA52F4D51A84
:100510000ED16CB950F8042B51F8043BCCFA52F4CC
:10052000D51A05D1002CDAD030BC4FF0000070474E
:1005300029BAB1FA81F111F01801D1F120008440FB
:10054000F2D1CA40CB4012F0FF0213F0FF0330BCDF
:10055000D01A70477047704770477047754600F073
:100560002BF8AE4605006946534620F00700854645
:1005700018B020B5FFF786FEBDE820404FF000061A
:100580004FF000074FF000084FF0000BAC46ACE80E
:10059000C009ACE8C009ACE8C009ACE8C00921F06A
:1005A00007018D46704710B50446AFF30080204622
:1005B000BDE81040FFF751BE00487047E801002039
:1005C000B0B5B3F5804F034615D153F822C00020D3
:1005D000CCF6F0700CEA000CD1E9000ED1E902452E
:1005E00040EA0C0040EA0E10896940EA042040EA23
:1005F0000540014301E06FF07041002043F82210F4
:10060000B0BD00002DE9F043D1E9003C0246D1E93C
:10061000020ED1E90489D1E9066752F8234080250A
:10062000CFF6F0752C4044EA0C05054345EA0E056B
:1006300045EA080545EA09052E430D6A37434E6A27
:100640002F438D6A3743CE6A2F433743CE6B096BF6
:100650003743394308284FF0000008BF41F04001FC
:1006600042F82310BDE8F083F0B500EB8202506839
:10067000D1E902E400F0404CD1E90030D1E9045660
:1006800043EA0C03002743EA0010CFF6F07740EA74
:100690000E20896907EB055540EA04402843FE36E1
:1006A000084340EA066100205160F0BD2DE9F04F9B
:1006B00083B000F13E4202F1FF724FEAB22241F6EE
:1006C00000470192C4F2020708224FF0010E0025F4
:1006D0004FF0000A4FF00008B84208BF072200920E
:1006E0000AE000BF08F101080AF1040AB8F1100F8E
:1006F00005F1020500F0A2800C680EFA08FB14EA6E
:100700000B09EFD04C6804F0030CACF1010EBEF104
:10071000010F11D80322876802FA05F6CA68B743A9
:10072000AA403A4382604268C4F3001722EA0B02EF
:1007300007FA08F73A434260BCF1030F1CD0C268C5
:1007400003238E6803FA05F7BA4306FA05F73A431E
:10075000BCF1020FC2600FD16FF0030202EA58022F
:1007600002440AF01C060F23176A03FA06F40B6909
:10077000A743B3403B431362026803234F68AB4077
:100780009A4307F00303AB401A4317F4403F4FF07E
:10079000010E0260A6D0002243F644030292C4F286
:1007A00002031A6843F6004442F480421A601A6851
:1007B000C4F2010402F480420292029A28F0030279
:1007C0004FF6084B2244CFF6FF7B52F80B300AF06D
:1007D0000C070F26BE4023EA060C019B009E072B48
:1007E00038BF1E4606FA07F747EA0C0342F80B30FB
:1007F00022684B6842EA0907DE0358BF22EA09076C
:10080000276062689E0342EA090758BF22EA090787
:100810006760A268DE0242EA090758BF22EA0907B8
:10082000A76043F60C47C4F201073A689B0242EA0C
:10083000090358BF22EA09033B6053E703B0BDE850
:10084000F08F0000002A08BF090481617047000092
:1008500044F23470C2F201000068704780B543F67C
:100860000040C4F20200016841F4007101600168B7
:1008700041F480610160016841F4807101600320EE
:1008800000F020F80F2000F005F800F005F8002037
:1008900080BD0000002070477047000080B502F066
:1008A000F9FB80BD70B514460D46064602F002FC09
:1008B0002946224602F0FEF90146304602F002FCCB
:1008C00070BD000080B502F00FFC80BD2DE9F04145
:1008D000002800F08B8043F60808C4F202080446A2
:1008E000D8F8F8030D4600F00700884207D288F8D0
:1008F000F853D8F8F80300F00700A84276D1206832
:10090000810717D5410705D5D8F8001041F4E0510B
:10091000C8F80010010705D5D8F8001041F460416F
:10092000C8F80010D8F80010A26821F0F0011143B7
:10093000C8F80010C0073FD1D8F8F80300F007004E
:10094000A84207D988F8F853D8F8F80300F0070050
:10095000A8424BD12068410707D5D8F80010E268BB
:1009600021F4E0511143C8F80010000708D5D8F869
:100970000000216920F4604040EAC100C8F800008E
:1009800000F07EF8D8F800104CF2A622C1F3031153
:10099000C0F60202515C40F2080220FA01F140F276
:1009A000E010C2F200000068C2F200021160FFF71E
:1009B00071FF0020BDE8F0816068811E022907D226
:1009C00058F8081C89015CBF0120BDE8F08110E0E7
:1009D000012807D158F8081C89035CBF0120BDE835
:1009E000F08106E058F8081C890702D40120BDE810
:1009F000F081D8F8001021F003010843C8F8000086
:100A0000FFF726FF064641F2883700BFD8F80000FE
:100A1000616800F00C00B0EB810F8DD0FFF718FF7C
:100A2000801BB842F2D90320BDE8F08140F20800F3
:100A3000C2F200000068704780B5FFF7F7FF43F689
:100A40000801C4F2020109684CF2B622C1F3822106
:100A5000C0F60202515CC84080BD000080B5FFF7BF
:100A6000E5FF43F60801C4F2020109684CF2B62220
:100A7000C1F34231C0F60202515CC84080BD0000A3
:100A800010B543F60404C4F20204606800F00C00E0
:100A900008280AD0042819BF42F20040C0F2F4002E
:100AA00047F64000C0F27D1010BD20682168236821
:100AB000490247F64001C0F27D1100F03F02C3F346
:100AC00088105CBF42F20041C0F2F401A1FB0001BA
:100AD0000023FFF7EAFB21680222C1F3014102EB88
:100AE0004101B0FBF1F010BD2DE9F04182B00028CA
:100AF00000F0A2800446007843F60006C007C4F266
:100B0000020643D0B06800F00C00042805D130681C
:100B100080033BD56068C8BB8EE0B06800F00C0075
:100B2000082802D170684002F1D46568B5F5A02F9D
:100B30000AD0B5F5803F0BD0306820F480303060AB
:100B4000306820F4802006E0306840F48020306077
:100B5000306840F480303060FFF77AFE002D0546A3
:100B600011D000BF3068800310D4FFF771FE401B26
:100B70006428F7D922E100BFFFF76AFE401B642812
:100B80004FF0030055D830688003F5D420788007F3
:100B90001AD5B06810F00C0F09D0B06800F00C0046
:100BA000082840F08A807068400200F18680306832
:100BB000800702D5E06801283ED13068216920F025
:100BC000F80040EAC10030602078000738D420786F
:100BD00040074CD4A5695DB3B06800F00C0008284C
:100BE00040F09E80012D27D07068E16900F48002FA
:100BF0008A4221D1216A00F03F028A421CD147F685
:100C0000C071626A0140B1EB821F15D1A26A002354
:100C1000CFF6FF7303EBC23200F440316FF30F02E3
:100C2000914209D1E16A00F07060B0EB016F03D12D
:100C3000002002B0BDE8F081012002B0BDE8F081E3
:100C40006069002840F20000C4F2472057D001211B
:100C5000C0F8801EFFF7FCFD054600BF706F8007DF
:100C6000B5D4FFF7F5FD401B0228F7D9A6E0306C9C
:100C700010F080580AD100200190306C40F0805074
:100C80003064306C00F080500190019847F200070A
:100C9000C4F200073868C00524D4386840F4807076
:100CA0003860FFF7D5FD05463868C0051AD4FFF750
:100CB000CFFD401B0228F7D980E0E068002851D022
:100CC0000020C4F2472001210160FFF7C1FD054665
:100CD000306880073FF571AFFFF7BAFD401B02286F
:100CE000F6D96BE0A568052D50D0012D52D0306F9C
:100CF00020F001003067306F20F004004DE000214B
:100D0000C0F8801EFFF7A4FD054600BF706F800786
:100D10007FF55DAFFFF79CFD401B0228F6D94DE043
:100D20000027C4F2472700203866FFF791FD022D07
:100D300005460BD13068800158D5FFF789FD401B6F
:100D400002284FF00300F5D973E700BF3068800137
:100D50007FF56EAFFFF77CFD401B02284FF00300CC
:100D6000F4D966E70020C4F2472000210160FFF7B4
:100D70006FFD0546306880077FF526AFFFF768FDF9
:100D8000401B02284FF00300F4D952E7306F40F0C7
:100D900004003067306F40F001003067FFF758FD06
:100DA000002D054641F2883714D000BF306F800710
:100DB00013D4FFF74DFD401BB842F7D9032002B012
:100DC000BDE8F081FFF744FD401BB8424FF003003F
:100DD0003FF62FAF306F8007F4D4B8F1000F7FF4E7
:100DE000F9AE306C20F080503064F3E604F11C055D
:100DF0002FCD08430021CFF6FF7140EA821001EBAE
:100E0000C3316FF30F0140EA0560084370600120B1
:100E10003866FFF71DFD0446306880013FF508AFD6
:100E2000FFF716FD001B02284FF00300F4D900E77E
:100E3000002804BF0120704770B5044690F84900AF
:100E400015460E4628B9002084F84800204600F0D8
:100E50001BF8206804F10801FFF7D4FB2068A268A2
:100E60003146FFF701FCD4E90102236B2946FFF765
:100E7000A7FB2068A16850F8212042F0010240F849
:100E80002120002070BD0000704700007047000066
:100E90007047000010B590F83C20012A4FF0020284
:100EA00052D0012380F83C3080F83D200268D2F80F
:100EB00004E0D2F808C00C682EF07003234341F21E
:100EC000FF74C4F20004A24253600DDC40F2FF73D1
:100ED000C4F200039A4215DCB2F1804F29D040F2EF
:100EE0000043C4F2000322E040F2FF33C4F20103E6
:100EF0009A4212DC41F60003C4F200039A4218D071
:100F0000002312E040F60003C4F200039A4210D01E
:100F100040F60043C4F2000309E044F20003C4F2C7
:100F200001039A4205D040F20043C4F201039A4201
:100F300004D149682CF080031943916001210022FB
:100F400080F83D1080F83C20104610BD002804BFFA
:100F50000120704710B5044690F83D0028B90020E4
:100F600084F83C00204600F01FF8022084F83D0081
:100F70002068211D01F080FF012084F8460084F8DC
:100F80003E0084F83F0084F8400084F8410084F873
:100F9000420084F8430084F8440084F8450084F853
:100FA0003D00002010BD000080B582B0006841F215
:100FB0000041C4F20001884216D041F20001C4F29F
:100FC0000001884227D10020019043F64000C4F27E
:100FD0000200016841F010010160006800F010009B
:100FE0000190019802B080BD0020009043F64000BF
:100FF000C4F202000168002241F020010160006893
:10100000002100F02000009000983720FFF74AFCF4
:101010003720FFF743FC02B080BD000090F83D1080
:1010200001291CBF01207047022180F83D10006893
:1010300041F2FF72C168C4F20002904241F0010126
:10104000C1600DDC40F2FF71C4F20001884215DC82
:10105000B0F1804F29D040F20041C4F2000122E0FB
:1010600040F2FF31C4F20101884212DC41F6000176
:10107000C4F20001884218D0002112E040F60001BD
:10108000C4F20001884210D040F60041C4F20001D1
:1010900009E044F20001C4F20101884205D040F2A7
:1010A0000041C4F20101884206D1816801F00701C4
:1010B000062904BF00207047016841F0010101606A
:1010C000002070477047000010B5044600680169B1
:1010D000890744BFC1685FEA817138D4206801691B
:1010E000490744BFC1685FEA41713CD42068016987
:1010F000090744BFC1685FEA017141D420680169F2
:10110000C90644BFC1685FEAC16145D4206801696E
:10111000C9071CBFC1685FEAC1714AD12068016973
:10112000090644BFC1685FEA016149D420680169CA
:10113000490644BFC1685FEA416148D4206801693B
:10114000890644BFC1685FEA816147D410BD6FF072
:1011500002010161012121778069800745D0204685
:10116000FFF7B0FF47E06FF0040101610221217732
:10117000806910F4407F41D02046FFF7A3FF43E091
:101180006FF00801016104212177C06980073ED01A
:101190002046FFF797FF40E06FF010010161082142
:1011A0002177C06910F4407F3AD02046FFF78AFFCC
:1011B0003CE06FF001010161204600F03FF8ADE72F
:1011C0006FF0800101612046FFF760FEAEE76FF02F
:1011D00040010161204600F03FF8AFE76FF02001C9
:1011E00001612046FFF754FE10BD204600F022F8B2
:1011F000204600F021F8002020776FE7204600F01D
:1012000019F8204600F018F8002020776EE72046F5
:1012100000F010F8204600F00FF8002020776DE76E
:10122000204600F007F8204600F006F8002020775E
:101230006CE70000704700007047000040F21C613E
:10124000C2F20001884218BF704780B5012023F028
:1012500039FFBDE88040704770470000002804BF98
:101260000120704710B5044690F83D0028B90020D1
:1012700084F83C00204600F021F8242084F83D004A
:101280002068C16821F40051C160204601F086FE4B
:101290002068016921F490410161416921F02A012E
:1012A0004161C16841F40051C160002020212064E7
:1012B00084F83D1084F83E1010BD000080B586B063
:1012C00041F200010068C4F2010100228842059247
:1012D000CDE903220292019201D006B080BD43F60F
:1012E00030000092C4F20200436943F010034361EE
:1012F000436903F010030093009B0092036843F0DE
:1013000001030360006800F00100009000984FF4B2
:10131000C06001900220CDE9020203200490072062
:10132000059001F5704001A9FFF7C0F925200021C3
:101330000122FFF7B7FA2520FFF7B0FA06B080BD0B
:1013400080B50246002841F20040C4F202004FF48A
:10135000007118BF0122FFF775FA80BD70B5049EB9
:101360001C46154600F048F904FB05F0314600F034
:1013700053F870BD81B00090009828B100980138F2
:10138000009000980028F9D101B0704780B582B074
:1013900040F27420C2F200004FF02041016040F2A0
:1013A0000411CAF200014160002243F638010192A3
:1013B000C4F202010B684FF0805C43F001030B6044
:1013C0000968042301F001010191019940F2C4214F
:1013D000C2F20001C1E90032C1E90232C0E90232C1
:1013E000082303611023C0E905324FF48053C1E99B
:1013F0000422C1F818C0C2614FF4801CC0E909235F
:10140000C0E90B22C0E90D220A46C0F83CC0FFF734
:101410000FFD02B080BD0000B0B505464FF430505E
:101420000C4601F03DFC002D08BFB0BD204601F088
:101430003BFC013DFAD1B0BDB0B586B0002143F60A
:1014400030000191C4F20200026841F2004442F00F
:10145000080202600268C4F2020402F0080201926B
:10146000019A0191026801AD42F010020260026827
:1014700002F010020192019A0191026842F02002EA
:101480000260026802F020020192019A0191026852
:1014900042F040020260026802F040020192019AAA
:1014A0000191816841F0010181608068294600F066
:1014B0000100019001980120CDE902000320049071
:1014C0004FF48060019004F58060FFF7EFF84FF46F
:1014D0000060019020462946FFF7E8F802200290BC
:1014E0000C2005904CF233700190A4F50060294661
:1014F000FFF7DCF84FF680700190A4F58060294674
:10150000FFF7D4F840F20120019020462946FFF76A
:10151000CDF806B0B0BD0000072888BF704770B591
:10152000044640F20000C2F20000047014F0010012
:101530004FF4487040F2020608BF4FF4F0704FF4C9
:10154000F071C2F2000640F2040508BF4FF4487182
:101550003080C2F200054FF45850298001F0A0FB02
:10156000600101F0A1FB4FF4285001F099FB00202D
:1015700001F09AFB42F6012001F092FB002001F0FD
:1015800093FB42F6022001F08BFB30880138C0F358
:10159000072001F089FB42F6032001F081FB30882F
:1015A0000138C0B201F080FB4FF42C5001F078FB01
:1015B000002001F079FB42F6013001F071FB0020C0
:1015C00001F072FB42F6023001F06AFB2888013814
:1015D000C0F3072001F068FB42F6033001F060FB26
:1015E00028880138C0B201F05FFB4FF4305001F0A1
:1015F00057FBBDE870407047F0B581B007464FF427
:1016000028501C4616460D4601F04AFB380A01F0E8
:101610004BFB42F6012001F043FBF8B201F044FB22
:1016200042F6022001F03CFBB819461EC6F30F201B
:1016300001F03AFB42F6032001F032FBF0B201F078
:1016400033FB4FF42C5001F02BFB280A01F02CFB4C
:1016500042F6013001F024FBE8B201F025FB42F62E
:10166000023001F01DFB2819441EC4F30F2001F0C5
:101670001BFB42F6033001F013FBE0B201F014FB58
:1016800001B0F0BD80B54FF4704001F009FB55206A
:1016900001F00AFB4FF2010001F002FBAA2001F069
:1016A00003FB4FF2020001F0FBFA522001F0FCFABA
:1016B0004FF2030001F0F4FA082001F0F5FA4FF2BE
:1016C000040001F0EDFA012001F0EEFA4FF4304091
:1016D00001F0E6FA0D2001F0E7FA4BF2010001F00B
:1016E000DFFA0D2001F0E0FA4BF2020001F0D8FA27
:1016F0000D2001F0D9FA4FF4314001F0D1FA0D205C
:1017000001F0D2FA4BF2011001F0CAFA0D2001F0FB
:10171000CBFA4BF2021001F0C3FA0D2001F0C4FA2B
:101720004FF4324001F0BCFA002001F0BDFA4BF258
:10173000012001F0B5FA002001F0B6FA4BF20220C8
:1017400001F0AEFA002001F0AFFA4FF4364001F09C
:10175000A7FA442001F0A8FA4BF2016001F0A0FAC8
:10176000442001F0A1FA4BF2026001F099FA442002
:1017700001F09AFA4FF4374001F092FA342001F068
:1017800093FA4BF2017001F08BFA342001F08CFADD
:101790004BF2027001F084FA342001F085FA4FF424
:1017A000384001F07DFA342001F07EFA4BF601005A
:1017B00001F076FA342001F077FA4BF6020001F0DE
:1017C0006FFA342001F070FA4FF43F4001F068FAEC
:1017D000012001F069FA4FF4334001F061FA0F2063
:1017E00001F062FA4BF2013001F05AFA0F2001F0D9
:1017F0005BFA4BF2023001F053FA0F2001F054FA79
:101800004FF4394001F04CFA342001F04DFA4BF618
:10181000011001F045FA342001F046FA4BF60210AF
:1018200001F03EFA342001F03FFA4FF4354001F068
:1018300037FA082001F038FA4BF2015001F030FA83
:10184000082001F031FA4BF2025001F029FA082089
:1018500001F02AFA4FF4424001F022FA032001F08D
:1018600023FA4FF43A4001F01BFA342001F01CFA3D
:101870004BF6012001F014FA342001F015FA4BF672
:10188000022001F00DFA342001F00EFA4FF43C4032
:1018900001F006FA002001F007FA4BF6014001F0D2
:1018A000FFF9782001F000FA4BF6024001F0F8F958
:1018B000002001F0F9F94FF43D4001F0F1F900206A
:1018C00001F0F2F94BF6015001F0EAF9782001F04D
:1018D000EBF94BF6025001F0E3F9002001F0E4F9D6
:1018E0004FF43E4001F0DCF9002001F0DDF94BF649
:1018F000016001F0D5F9642001F0D6F94FF45140B0
:1019000001F0CEF9002001F0CFF94DF2011001F005
:10191000C7F9332001F0C8F94DF2021001F0C0F907
:10192000002001F0C1F94DF2031001F0B9F93420A3
:1019300001F0BAF94DF2041001F0B2F9002001F003
:10194000B3F94DF2051001F0ABF93A2001F0ACF912
:101950004DF2061001F0A4F9002001F0A5F94DF2B6
:10196000071001F09DF94A2001F09EF94DF2081090
:1019700001F096F9002001F097F94DF2091001F0FD
:101980008FF95C2001F090F94DF20A1001F088F90E
:10199000002001F089F94DF20B1001F081F981204E
:1019A00001F082F94DF20C1001F07AF9002001F0FB
:1019B0007BF94DF20D1001F073F9A62001F074F9D6
:1019C0004DF20E1001F06CF9002001F06DF94DF2AE
:1019D0000F1001F065F9E52001F066F94DF21010E5
:1019E00001F05EF9012001F05FF94DF2111001F0F4
:1019F00057F9132001F058F94DF2121001F050F987
:101A0000012001F051F94DF2131001F049F9542071
:101A100001F04AF94DF2141001F042F9012001F0F1
:101A200043F94DF2151001F03BF9822001F03CF929
:101A30004DF2161001F034F9012001F035F94DF2A4
:101A4000171001F02DF9CA2001F02EF94DF21810EF
:101A500001F026F9022001F027F94DF2191001F0EA
:101A60001FF9002001F020F94DF21A1001F018F9C9
:101A7000022001F019F94DF21B1001F011F90120BB
:101A800001F012F94DF21C1001F00AF9022001F0E8
:101A90000BF94DF21D1001F003F9342001F004F9A7
:101AA0004DF21E1001F0FCF8022001F0FDF84DF29D
:101AB0001F1001F0F5F8672001F0F6F84DF2201044
:101AC00001F0EEF8022001F0EFF84DF2211001F0E4
:101AD000E7F8842001F0E8F84DF2221001F0E0F878
:101AE000022001F0E1F84DF2231001F0D9F8A42012
:101AF00001F0DAF84DF2241001F0D2F8022001F0E2
:101B0000D3F84DF2251001F0CBF8B72001F0CCF856
:101B10004DF2261001F0C4F8022001F0C5F84DF294
:101B2000271001F0BDF8CF2001F0BEF84DF22810CB
:101B300001F0B6F8022001F0B7F84DF2291001F0DB
:101B4000AFF8DE2001F0B0F84DF22A1001F0A8F84D
:101B5000022001F0A9F84DF22B1001F0A1F8F220BB
:101B600001F0A2F84DF22C1001F09AF8022001F0D9
:101B70009BF84DF22D1001F093F8FE2001F094F83F
:101B80004DF22E1001F08CF8032001F08DF84DF28B
:101B90002F1001F085F8102001F086F84DF230107A
:101BA00001F07EF8032001F07FF84DF2311001F0D2
:101BB00077F8332001F078F84DF2321001F070F828
:101BC000032001F071F84DF2331001F069F86D2037
:101BD00001F06AF84FF4524001F062F8002001F081
:101BE00063F84DF2012001F05BF8332001F05CF85E
:101BF0004DF2022001F054F8002001F055F84DF2AA
:101C0000032001F04DF8342001F04EF84DF204208D
:101C100001F046F8002001F047F84DF2052001F0F0
:101C20003FF83A2001F040F84DF2062001F038F874
:101C3000002001F039F84DF2072001F031F84A2078
:101C400001F032F84DF2082001F02AF8002001F0EE
:101C50002BF84DF2092001F023F85C2001F024F864
:101C60004DF20A2001F01CF8002001F01DF84DF2A1
:101C70000B2001F015F8812001F016F84DF20C2030
:101C800001F00EF8002001F00FF84DF20D2001F0E8
:101C900007F8A62001F008F84DF20E2001F000F838
:101CA000002001F001F84DF20F2000F0F9FFE520CF
:101CB00000F0FAFF4DF2102000F0F2FF012000F0DA
:101CC000F3FF4DF2112000F0EBFF132000F0ECFFCA
:101CD0004DF2122000F0E4FF012000F0E5FF4DF28C
:101CE000132000F0DDFF542000F0DEFF4DF2142041
:101CF00000F0D6FF012000F0D7FF4DF2152000F0D4
:101D0000CFFF822000F0D0FF4DF2162000F0C8FF78
:101D1000012000F0C9FF4DF2172000F0C1FFCA20DA
:101D200000F0C2FF4DF2182000F0BAFF022000F0D0
:101D3000BBFF4DF2192000F0B3FF002000F0B4FF0C
:101D40004DF21A2000F0ACFF022000F0ADFF4DF282
:101D50001B2000F0A5FF012000F0A6FF4DF21C2083
:101D600000F09EFF022000F09FFF4DF21D2000F0CA
:101D700097FF342000F098FF4DF21E2000F090FFF6
:101D8000022000F091FF4DF21F2000F089FF672034
:101D900000F08AFF4DF2202000F082FF022000F0C8
:101DA00083FF4DF2212000F07BFF842000F07CFFB8
:101DB0004DF2222000F074FF022000F075FF4DF27A
:101DC000232000F06DFFA42000F06EFF4DF22420D0
:101DD00000F066FF022000F067FF4DF2252000F0C2
:101DE0005FFFB72000F060FF4DF2262000F058FFA3
:101DF000022000F059FF4DF2272000F051FFCF20C4
:101E000000F052FF4DF2282000F04AFF022000F0BF
:101E10004BFF4DF2292000F043FFDE2000F044FF8D
:101E20004DF22A2000F03CFF022000F03DFF4DF271
:101E30002B2000F035FFF22000F036FF4DF22C2071
:101E400000F02EFF022000F02FFF4DF22D2000F0B9
:101E500027FFFE2000F028FF4DF22E2000F020FF8B
:101E6000032000F021FF4DF22F2000F019FF102079
:101E700000F01AFF4DF2302000F012FF032000F0B6
:101E800013FF4DF2312000F00BFF332000F00CFF68
:101E90004DF2322000F004FF032000F005FF4DF268
:101EA000332000F0FDFE6D2000F0FEFE4FF45340A5
:101EB00000F0F6FE002000F0F7FE4DF2013000F0D9
:101EC000EFFE332000F0F0FE4DF2023000F0E8FEAD
:101ED000002000F0E9FE4DF2033000F0E1FE342076
:101EE00000F0E2FE4DF2043000F0DAFE002000F0D7
:101EF000DBFE4DF2053000F0D3FE3A2000F0D4FEB8
:101F00004DF2063000F0CCFE002000F0CDFE4DF288
:101F1000073000F0C5FE4A2000F0C6FE4DF2083042
:101F200000F0BEFE002000F0BFFE4DF2093000F0D0
:101F3000B7FE5C2000F0B8FE4DF20A3000F0B0FEB3
:101F4000002000F0B1FE4DF20B3000F0A9FE812020
:101F500000F0AAFE4DF20C3000F0A2FE002000F0CE
:101F6000A3FE4DF20D3000F09BFEA62000F09CFE7B
:101F70004DF20E3000F094FE002000F095FE4DF280
:101F80000F3000F08DFEE52000F08EFE4DF2103097
:101F900000F086FE012000F087FE4DF2113000F0C7
:101FA0007FFE132000F080FE4DF2123000F078FE2C
:101FB000012000F079FE4DF2133000F071FE542044
:101FC00000F072FE4DF2143000F06AFE012000F0C5
:101FD0006BFE4DF2153000F063FE822000F064FECF
:101FE0004DF2163000F05CFE012000F05DFE4DF277
:101FF000173000F055FECA2000F056FE4DF21830A2
:1020000000F04EFE022000F04FFE4DF2193000F0BD
:1020100047FE002000F048FE4DF21A3000F040FE6E
:10202000022000F041FE4DF21B3000F039FE01208D
:1020300000F03AFE4DF21C3000F032FE022000F0BB
:1020400033FE4DF21D3000F02BFE342000F02CFE4C
:102050004DF21E3000F024FE022000F025FE4DF26D
:102060001F3000F01DFE672000F01EFE4DF22030F4
:1020700000F016FE022000F017FE4DF2213000F0B5
:102080000FFE842000F010FE4DF2223000F008FE1A
:10209000022000F009FE4DF2233000F001FEA420E2
:1020A00000F002FE4DF2243000F0FAFD022000F0B4
:1020B000FBFD4DF2253000F0F3FDB72000F0F4FDFC
:1020C0004DF2263000F0ECFD022000F0EDFD4DF267
:1020D000273000F0E5FDCF2000F0E6FD4DF228307E
:1020E00000F0DEFD022000F0DFFD4DF2293000F0AF
:1020F000D7FDDE2000F0D8FD4DF22A3000F0D0FDF3
:10210000022000F0D1FD4DF22B3000F0C9FDF2208D
:1021100000F0CAFD4DF22C3000F0C2FD022000F0AC
:10212000C3FD4DF22D3000F0BBFDFE2000F0BCFDE4
:102130004DF22E3000F0B4FD032000F0B5FD4DF25D
:102140002F3000F0ADFD102000F0AEFD4DF230302C
:1021500000F0A6FD032000F0A7FD4DF2313000F0A5
:102160009FFD332000F0A0FD4DF2323000F098FDCD
:10217000032000F099FD4DF2333000F091FD6D2009
:1021800000F092FD4FF4544000F08AFD002000F072
:102190008BFD4DF2014000F083FD332000F084FD03
:1021A0004DF2024000F07CFD002000F07DFD4DF27C
:1021B000034000F075FD342000F076FD4DF2044040
:1021C00000F06EFD002000F06FFD4DF2054000F0C4
:1021D00067FD3A2000F068FD4DF2064000F060FD1A
:1021E000002000F061FD4DF2074000F059FD4A204B
:1021F00000F05AFD4DF2084000F052FD002000F0C2
:1022000053FD4DF2094000F04BFD5C2000F04CFD09
:102210004DF20A4000F044FD002000F045FD4DF273
:102220000B4000F03DFD812000F03EFD4DF20C40E2
:1022300000F036FD002000F037FD4DF20D4000F0BB
:102240002FFDA62000F030FD4DF20E4000F028FDDD
:10225000002000F029FD4DF20F4000F021FDE520A7
:1022600000F022FD4DF2104000F01AFD012000F0B8
:102270001BFD4DF2114000F013FD132000F014FD82
:102280004DF2124000F00CFD012000F00DFD4DF26A
:10229000134000F005FD542000F006FD4DF21440FF
:1022A00000F0FEFC012000F0FFFC4DF2154000F0B4
:1022B000F7FC822000F0F8FC4DF2164000F0F0FC34
:1022C000012000F0F1FC4DF2174000F0E9FCCA20BB
:1022D00000F0EAFC4DF2184000F0E2FC022000F0B1
:1022E000E3FC4DF2194000F0DBFC002000F0DCFCC8
:1022F0004DF21A4000F0D4FC022000F0D5FC4DF263
:102300001B4000F0CDFC012000F0CEFC4DF21C4043
:1023100000F0C6FC022000F0C7FC4DF21D4000F0AA
:10232000BFFC342000F0C0FC4DF21E4000F0B8FCB1
:10233000022000F0B9FC4DF21F4000F0B1FC672014
:1023400000F0B2FC4DF2204000F0AAFC022000F0A8
:10235000ABFC4DF2214000F0A3FC842000F0A4FC73
:102360004DF2224000F09CFC022000F09DFC4DF25A
:10237000234000F095FCA42000F096FC4DF2244090
:1023800000F08EFC022000F08FFC4DF2254000F0A2
:1023900087FCB72000F088FC4DF2264000F080FC5E
:1023A000022000F081FC4DF2274000F079FCCF20A4
:1023B00000F07AFC4DF2284000F072FC022000F0A0
:1023C00073FC4DF2294000F06BFCDE2000F06CFC49
:1023D0004DF22A4000F064FC022000F065FC4DF252
:1023E0002B4000F05DFCF22000F05EFC4DF22C4032
:1023F00000F056FC022000F057FC4DF22D4000F09A
:102400004FFCFE2000F050FC4DF22E4000F048FC46
:10241000032000F049FC4DF22F4000F041FC102059
:1024200000F042FC4DF2304000F03AFC032000F096
:102430003BFC4DF2314000F033FC332000F034FC23
:102440004DF2324000F02CFC032000F02DFC4DF248
:10245000334000F025FC6D2000F026FC4FF4554081
:1024600000F01EFC002000F01FFC4DF2015000F0B7
:1024700017FC332000F018FC4DF2025000F010FC65
:10248000002000F011FC4DF2035000F009FC342054
:1024900000F00AFC4DF2045000F002FC002000F0B5
:1024A00003FC4DF2055000F0FBFB3A2000F0FCFB72
:1024B0004DF2065000F0F4FB002000F0F5FB4DF269
:1024C000075000F0EDFB4A2000F0EEFB4DF2085003
:1024D00000F0E6FB002000F0E7FB4DF2095000F0B1
:1024E000DFFB5C2000F0E0FB4DF20A5000F0D8FB6F
:1024F000002000F0D9FB4DF20B5000F0D1FB812001
:1025000000F0D2FB4DF20C5000F0CAFB002000F0AE
:10251000CBFB4DF20D5000F0C3FBA62000F0C4FB36
:102520004DF20E5000F0BCFB002000F0BDFB4DF260
:102530000F5000F0B5FBE52000F0B6FB4DF2105057
:1025400000F0AEFB012000F0AFFB4DF2115000F0A7
:10255000A7FB132000F0A8FB4DF2125000F0A0FBE7
:10256000012000F0A1FB4DF2135000F099FB542024
:1025700000F09AFB4DF2145000F092FB012000F0A5
:1025800093FB4DF2155000F08BFB822000F08CFB8A
:102590004DF2165000F084FB012000F085FB4DF257
:1025A000175000F07DFBCA2000F07EFB4DF2185062
:1025B00000F076FB022000F077FB4DF2195000F09E
:1025C0006FFB002000F070FB4DF21A5000F068FB2A
:1025D000022000F069FB4DF21B5000F061FB01206E
:1025E00000F062FB4DF21C5000F05AFB022000F09C
:1025F0005BFB4DF21D5000F053FB342000F054FB08
:102600004DF21E5000F04CFB022000F04DFB4DF24D
:102610001F5000F045FB672000F046FB4DF22050B4
:1026200000F03EFB022000F03FFB4DF2215000F095
:1026300037FB842000F038FB4DF2225000F030FBD5
:10264000022000F031FB4DF2235000F029FBA420C2
:1026500000F02AFB4DF2245000F022FB022000F093
:1026600023FB4DF2255000F01BFBB72000F01CFBB4
:102670004DF2265000F014FB022000F015FB4DF245
:10268000275000F00DFBCF2000F00EFB4DF228503C
:1026900000F006FB022000F007FB4DF2295000F08D
:1026A000FFFADE2000F000FB4DF22A5000F0F8FAAD
:1026B000022000F0F9FA4DF22B5000F0F1FAF2206E
:1026C00000F0F2FA4DF22C5000F0EAFA022000F08D
:1026D000EBFA4DF22D5000F0E3FAFE2000F0E4FAA0
:1026E0004DF22E5000F0DCFA032000F0DDFA4DF23E
:1026F0002F5000F0D5FA102000F0D6FA4DF23050ED
:1027000000F0CEFA032000F0CFFA4DF2315000F085
:10271000C7FA332000F0C8FA4DF2325000F0C0FA88
:10272000032000F0C1FA4DF2335000F0B9FA6D20E9
:1027300000F0BAFA4FF4564000F0B2FA002000F070
:10274000B3FA4DF2016000F0ABFA332000F0ACFABE
:102750004DF2026000F0A4FA002000F0A5FA4DF25C
:10276000036000F09DFA342000F09EFA4DF2046000
:1027700000F096FA002000F097FA4DF2056000F0A4
:102780008FFA3A2000F090FA4DF2066000F088FAD5
:10279000002000F089FA4DF2076000F081FA4A202B
:1027A00000F082FA4DF2086000F07AFA002000F0A2
:1027B0007BFA4DF2096000F073FA5C2000F074FAC5
:1027C0004DF20A6000F06CFA002000F06DFA4DF254
:1027D0000B6000F065FA812000F066FA4DF20C60A3
:1027E00000F05EFA002000F05FFA4DF20D6000F09C
:1027F00057FAA62000F058FA4DF20E6000F050FA99
:10280000002000F051FA4DF20F6000F049FAE52087
:1028100000F04AFA4DF2106000F042FA012000F098
:1028200043FA4DF2116000F03BFA132000F03CFA3D
:102830004DF2126000F034FA012000F035FA4DF24A
:10284000136000F02DFA542000F02EFA4DF21460BF
:1028500000F026FA012000F027FA4DF2156000F092
:102860001FFA822000F020FA4DF2166000F018FAEC
:10287000012000F019FA4DF2176000F011FACA2099
:1028800000F012FA4DF2186000F00AFA022000F08F
:102890000BFA4DF2196000F003FA002000F004FA80
:1028A0004DF21A6000F0FCF9022000F0FDF94DF243
:1028B0001B6000F0F5F9012000F0F6F94DF21C6004
:1028C00000F0EEF9022000F0EFF94DF21D6000F08B
:1028D000E7F9342000F0E8F94DF21E6000F0E0F96D
:1028E000022000F0E1F94DF21F6000F0D9F96720F5
:1028F00000F0DAF94DF2206000F0D2F9022000F089
:10290000D3F94DF2216000F0CBF9842000F0CCF92E
:102910004DF2226000F0C4F9022000F0C5F94DF23A
:10292000236000F0BDF9A42000F0BEF94DF2246050
:1029300000F0B6F9022000F0B7F94DF2256000F082
:10294000AFF9B72000F0B0F94DF2266000F0A8F919
:10295000022000F0A9F94DF2276000F0A1F9CF2084
:1029600000F0A2F94DF2286000F09AF9022000F080
:102970009BF94DF2296000F093F9DE2000F094F904
:102980004DF22A6000F08CF9022000F08DF94DF232
:102990002B6000F085F9F22000F086F94DF22C60F2
:1029A00000F07EF9022000F07FF94DF22D6000F07A
:1029B00077F9FE2000F078F94DF22E6000F070F902
:1029C000032000F071F94DF22F6000F069F910203A
:1029D00000F06AF94DF2306000F062F9032000F077
:1029E00063F94DF2316000F05BF9332000F05CF9DF
:1029F0004DF2326000F054F9032000F055F94DF229
:102A0000336000F04DF96D2000F04EF94FF4704046
:102A100000F046F9552000F047F94FF2010000F0B0
:102A20003FF9AA2000F040F94FF2020000F038F917
:102A3000522000F039F94FF2030000F031F908207C
:102A400000F032F94FF2040000F02AF9002000F003
:102A50002BF94FF4354000F023F9502000F024F911
:102A60004FF4314000F01CF9CC2000F01DF94BF27E
:102A7000011000F015F9002000F016F94FF436406F
:102A800000F00EF9052000F00FF94FF4374000F088
:102A900007F9772000F008F94BF2017000F000F917
:102AA000772000F001F94FF4384000F0F9F80120E8
:102AB00000F0FAF84BF6010000F0F2F8032000F005
:102AC000F3F84BF6020000F0EBF8032000F0ECF80E
:102AD0004BF6030000F0E4F8032000F0E5F84FF4B3
:102AE0003C4000F0DDF8022000F0DEF84BF601403B
:102AF00000F0D6F8002000F0D7F84BF6024000F0C6
:102B0000CFF8002000F0D0F84FF43D4000F0C8F8B6
:102B1000012000F0C9F84BF6015000F0C1F8842004
:102B200000F0C2F84BF6025000F0BAF81C2000F09A
:102B3000BBF84BF6035000F0B3F81C2000F0B4F8DB
:102B40004BF6045000F0ACF8002000F0ADF84FF464
:102B5000494000F0A5F8D02000F0A6F84CF601108E
:102B600000F09EF8022000F09FF84CF6021000F0F2
:102B700097F8502000F098F84CF6031000F090F809
:102B8000502000F091F84CF6041000F089F8502025
:102B900000F08AF84FF4585000F082F8002000F05E
:102BA00083F84FF4545000F07BF8002000F07CF8DC
:102BB0004FF47F4000F074F8AA2000F075F84FF64B
:102BC000017000F06DF8552000F06EF84FF60270BD
:102BD00000F066F8252000F067F84FF6037000F06B
:102BE0005FF8012000F060F84FF47C4000F058F8E6
:102BF000162000F059F84FF6014000F051F8A220DD
:102C000000F052F84FF6024000F04AF8262000F09B
:102C10004BF84FF4685000F043F8062000F044F8F9
:102C20004FF4685000F03CF8552000F03DF84FF4A8
:102C3000885000F035F86FF07F40FEF79BFB4FF4B3
:102C4000245000F02DF880BD10B541F20044C4F2CC
:102C5000020420464FF400610022FDF7F3FD40F628
:102C6000FF20FEF787FB20464FF400610122FDF7AD
:102C7000E9FD40F6FF20FEF77DFB10BD80B5012287
:102C80000123FEF7B9FC80BD10B51446FFF7F6FF2F
:102C90004FF4305000F004F8204600F005F810BD65
:102CA0004FF0D041088070470221C6F6000108802D
:102CB0007047000000F0070080F00703042B28BFD6
:102CC00004234FF0FF3C03380CFA03F338BF002015
:102CD000994381400CFA00F022EA00000843704753
:102CE000EFF30980BFF36F8F154B1A681EF0100FBA
:102CF00008BF20ED108A20E9F04F10602DE909008F
:102D00004FF0500080F31188BFF34F8FBFF36F8FE8
:102D100029F0E0F84FF0000080F31188BDE80900C9
:102D200019680868B0E8F04F1EF0100F08BFB0EC4B
:102D3000108A80F30988BFF36F8F704700BF00BF10
:102D4000104601200000000000000000000000000C
:102D5000074B19680868B0E8F04F80F30988BFF3A3
:102D60006F8F4FF0000080F31188704700BF00BFE5
:102D70001046012080B54FF0500080F31188BFF35A
:102D80006F8FBFF34F8F29F091F930B14EF6045099
:102D9000CEF200004FF080510160002080F31188D6
:102DA00080BD000070B592B006AC20463021FDF722
:102DB00069FB002543F640000595CDE90355CDE9B3
:102DC00001550095C4F202000168022641F08051CD
:102DD0000160006800F080500090009847F2000009
:102DE0000095C4F20000016841F480410160006870
:102DF00000F4804000900098012006904FF480304D
:102E000007904FF480000D9019200E904FF4A87099
:102E1000CDE90F060420119020460C96FDF764FEC4
:102E200008B100BFFEE70F20CDE901064FF4A05026
:102E300004904FF48050059001A805210395FDF7FB
:102E400045FD00B1FEE712B070BD00004EF688509F
:102E5000CEF20000016841F470010160704700008B
:102E600010B540F21C64C2F200042046FEF72CF9B3
:102E70002046FEF7D3F810BD10B540F6FF3E0368BC
:102E8000C4F2000E40F2004C7045C4F2010C0FDC9D
:102E9000B0F1804F19D040F20042C4F200029042DB
:102EA00013D040F60002C4F2000290420DD010E0B0
:102EB00040F60042C4F20002904206D0604504D0C1
:102EC0000022C4F20102904203D14A6823F0700349
:102ED000134341F6FF72C4F2000290420DDC7045CC
:102EE0001FDCB0F1804F41D040F20042C4F200023A
:102EF00090423BD040F6000221E043F6FF72C4F25C
:102F00000102904220DC42F20002C4F20002904230
:102F10002CD00022C4F20102904227D0604525D077
:102F200028E040F60042C4F2000290421ED041F672
:102F30000002C4F20002904218D041F60042C4F2EE
:102F40000002904212D015E044F20002C4F20102E5
:102F500090420BD044F60002C4F20102904205D028
:102F600044F20042C4F20102904203D1CA6823F441
:102F70004073134323F080024B69D1F800E08C6862
:102F80001A430260C46240F48062C0F828E06245DF
:102F900004BF096901630121416110BD10B50446F8
:102FA0000068D4E902C22369016921F44051114348
:102FB0000161626943EA0C01E3691143C268194384
:102FC00049F20C639A431143C1604169A26921F43B
:102FD000407141F20043114340F48062C4F20103A6
:102FE0009A42416102D1FDF739FD01E0FDF724FD70
:102FF000E16963681922B1F5004FA0FB02011CD101
:103000005A00DB0FFDF751F948F21F51C5F2EB11E1
:10301000A0FB01235A096FF0630302FB0300322374
:1030200003EBC000A0FB01014FF4F87000EA11109F
:1030300000EB0210C1F342111AE09A009B0FFDF75A
:1030400034F948F21F51C5F2EB11A0FB01235A09D4
:103050006FF0630302FB0300322303EB0010A0FBBD
:103060000101F02000EA511000EB0210C1F34311FE
:1030700022680843906010BD40F2E020C2F20000D8
:1030800000680168890658BF70474168C9B241604D
:1030900070470000002848BF704700F01F01012260
:1030A00002FA01F14EF200124009CEF2000242F89B
:1030B000201070474EF60C50CEF200000068C0F3AE
:1030C000022070474EF6145300F00F02CEF20003B8
:1030D00009011A4400F16043B0F1FF3FC8BF03F596
:1030E00064421170704700004EF60C51CEF20001A0
:1030F0000A684FF6FF031A4060F30A2242F080602C
:1031000040F0FD700860704770B505680446287887
:1031100000F01AF8002804BF002070BD681E0025CA
:10312000064600BF811C216016F8011F05EB8502D1
:10313000807801EB4201A1F1300500F005F800288C
:103140003046EFD1284670BDA0F1300100200A2999
:1031500038BF01207047000010B540F22430C2F2A1
:103160000000402100F0D8FF46F2C520C0F6000064
:103170001E210022002422F015F840F23031C2F264
:103180000001086003F048F840F2C040C2F20000BD
:10319000047010BD70B50346B1F90000B2F90040EB
:1031A000B1F902C0B2F90250B1F904E0B2F9046019
:1031B000A042B1F90610B2F90620C8BF0446AC45DA
:1031C0001C80C8BF6546B6455D80B8BF7646914253
:1031D0009E80B8BF0A460020B4424FF00001D8BF1D
:1031E00001219542D8BF01200840DA8070BD00005F
:1031F0002DE9F04381B00C46B0F90070B1F9001030
:103200008F423DDBB0F90260B4F902108E4237DB29
:10321000B0F90490B4F90410894531DCB0F90680A6
:10322000B4F9060080452BDC15466AB36946204692
:103230002A46ADF80070ADF8026000F097F8F8B1DA
:10324000694620462A46ADF80090ADF8026000F0CD
:103250008DF8A8B1694620462A46ADF80070ADF851
:10326000028000F083F858B1694620462A46ADF83E
:103270000090ADF8028000F079F801B0BDE8F0836D
:10328000002001B0BDE8F083012001B0BDE8F0836B
:10329000B0F90020B1F904309A4213DCB0F90420EF
:1032A000B1F900309A420DDBB0F90220B1F90630D5
:1032B0009A4207DCB0F90600B1F902108842A4BFB7
:1032C00001207047002070472DE9F04381B00C4683
:1032D000B0F90460B1F900108E4211DBB0F906704C
:1032E000B4F902108F420BDBB0F90080B4F904107E
:1032F000884505DCB0F90290B4F90600814503DD8C
:10330000012001B0BDE8F0831546EAB169462046C8
:103310002A46ADF80080ADF8029000F027F898B981
:10332000694620462A46ADF80060ADF8029000F0EC
:103330001DF848B9694620462A46ADF80080ADF828
:10334000027000F013F818B1002001B0BDE8F0835E
:10335000694620462A46ADF80060ADF8027000F0DC
:1033600005F880F0010001B0BDE8F0832DE9F04FD1
:1033700083B00646B1F90000B6F90070B8420EDB22
:10338000B6F904A050450ADCB1F90200B6F9028092
:103390000C46404503DBB6F90690484503DD0020A6
:1033A00003B0BDE8F08F1546012A6BDB304610F004
:1033B0004DFF81B200EBD1300FFA80FB4FEA6B007A
:1033C0000090304610F0B0FE81B200EBD13000B278
:1033D00000994610B1EB600FB8BF4FEA6B06AE42E2
:1033E000A8BF2E46ADF80470374406EB080501A8C7
:1033F00021460022ADF80870ADF80680ADF80A50FD
:10340000FFF7B4FF30B1B819ADF80800A819ADF84E
:103410000A0022E0A9EB060B01A821460022ADF824
:1034200006B0ADF80A90FFF7A1FF18B1B819ADF8D2
:1034300008000EE0AAEB060701A821460022ADF81D
:103440000470ADF808A0FFF791FF68B1B81BADF8A4
:103450000400ABEB0600ADF8060001A821461EF003
:10346000DFFD03B0BDE8F08F01A821460022ADF8D2
:103470000680ADF80A50FFF779FF18B1B81BADF818
:103480000400C3E7012003B0BDE8F08F70B5B1F9C7
:103490000030B2F90040B1F902C0B2F90250B1F9FE
:1034A00004E0B2F90460A342B1F90610B2F90620B3
:1034B000B8BF1C46AC450480B8BF6546B6454580DC
:1034C000C8BF764686809142C8BF0A46C28070BD9A
:1034D0002DE9F04F87B0DDF84080B8F1000F5FD0E4
:1034E000DDF84490B9F1020F5AD39B4692460D463F
:1034F000064601F0BDF8074613F04CFD3968044656
:10350000CA6A806804900AB10846904705A8314607
:103510002A46FFF73FFE002842D0208A618A4042B7
:103520004A4201B212B205A804F1100510F0E0FE03
:10353000BBF1000F15D03868007C000711D405A836
:1035400010F060FE01280CDBABF1010111F8012F36
:10355000802A4FF0000288BF4FF0FF3201380A7016
:10356000F4D13868C06968B104991FFA8AF305AAD2
:103570002846CDE9009BCDF808800DF093F907B0FF
:10358000BDE8F08F129F1FFA8AF367B1049905AA6C
:103590002846CDE9009BCDF8088003970CF0A2FEE9
:1035A00007B0BDE8F08F049905AA2846CDE9009B35
:1035B000CDF808800CF054FF07B0BDE8F08F000094
:1035C0002DE9F04F87B0DDF840B0BBF1000F6CD0B3
:1035D000DDF84480B8F1020F67D30C4692460146ED
:1035E00005A822469946FFF7D5FD00285DD001F0D9
:1035F0003FF8074613F0CEFC3B688168DA6A05465F
:103600001AB118460E4690473146288ABDF8142054
:10361000BDF81630161A6A8A10359B1AADF81630A6
:10362000BDF81830B9F1000FA3EB0000BDF81A3057
:10363000ADF81800A3EB0200ADF81460ADF81A0065
:1036400017D03868007C000713D405A80E4610F088
:10365000D9FD314601280CDBA9F1010313F8012F34
:10366000802A4FF0000288BF4FF0FF3201381A70F5
:10367000F4D13868C06960B101A880E8000B05AAE0
:1036800028462346CDF800A022F04AFE07B0BDE848
:10369000F08F129F67B105AA28462346CDE900A8FE
:1036A000CDE9029B049722F063FB07B0BDE8F08FE1
:1036B00001A880E8000B05AA28462346CDF800A003
:1036C00022F01AFC07B0BDE8F08F000070B582B0A0
:1036D000054621F0E7FC044600200190E86840F22E
:1036E0000056C2F200063060284621F075FE3068B0
:1036F00000691EF03BFC30684069002818BF1EF0CE
:1037000035FC3068C0691EF031FC3068006A1EF07C
:103710002DFC30680169A1B31EF04AFF1EF0A4FE23
:103720003068B0F8541121B30068007C800748BFAE
:1037300006F094FB30684FF48071343019F0F6FBDA
:103740003068202100F59A7019F0F0FB30680021F4
:10375000A0F85411204621F09FFC019030680068C9
:10376000036A33B144F28062C2F201020199126825
:10377000984719F079F900F033F800F007F802B033
:1037800070BD0021A0F8541102B070BDB0B540F278
:1037900034350024C2F200052859002818BF19F05A
:1037A00005FA28191C2119F0C1FB1C34702C08BF24
:1037B000B0BDF1E740F21061C2F20001096804E017
:1037C0000A7E42F001020A764969002908BF704763
:1037D0004A688242F4D00A688242F5D1F0E70000DC
:1037E0007047000080B540F23040C2F20000042172
:1037F00000F092FC80BD000080B540F23C40C2F277
:1038000000001C2100F088FC80BD00002DE9F04F75
:1038100081B00A9F002B044608BFB7F5807F00F0F7
:10382000CD80DDF82C804FF0FF39B8F90060B8F892
:1038300002E007FB06F0404209EB102C0FFA8EF075
:1038400007FB00F56D42891B101A09EB152579431A
:103850004FF00209784309EB112109EB1022002BEC
:10386000A4F800C06580A180E28000F0AD8046F23F
:103870006769C6F2666953FB09F0811001EBD076E7
:1038800006EB8600A3EB400530B221F0E7FE82464E
:10389000701C00B221F0E2FE834606F15A0000B22D
:1038A00021F0DCFE074606F15B0000B221F0D6FEF7
:1038B000C5F10A0101FB0AF205FB0B22794305FB66
:1038C000001052FB09F2931050FB09F003EBD27188
:1038D000821002EBD0704A114711B4F90000B4F91C
:1038E0000210B4F90430B4F9066007FB00FE07FBD0
:1038F00001F902FB11ECB8F8005002FB00FBB8F82C
:10390000020007FB03F802FB0399534302FB16EE88
:1039100007FB01BA02FB118107FB06BB02FB168203
:1039200007FB063305EB9C2C05EB9E2E00EB9A2A39
:1039300005EB912100EB992900EB9B2B05EB9225E0
:1039400000EB93220FFA8EF00FFA8CF398421F4689
:103950002EB209B2B8BF07468E420D46B8BF3546F3
:10396000AF42B8BF3D4698422580C8BF03468E424D
:10397000C8BF31468B42C8BF1946A1800FFA8BF0F1
:103980000FFA8AF188420B4612B20FFA89F7B8BFD4
:103990000346BA423E46B8BF1646B342B8BF1E46BB
:1039A00088426680C8BF0146BA42C8BF1746B942BE
:1039B000C8BF0F46E78001B0BDE8F08F002020604F
:1039C000481EA080501E0AE0B0B20CEB000323801A
:1039D00005EB0E0308446380A08002EB0E00E0803C
:1039E00001B0BDE8F08F00002DE9F04F81B0044632
:1039F000B0F90800B4F90A30081AE189D21AB1F511
:103A0000807F21680DD1D4E90B67636A07FB00F55D
:103A100006FB12557A4306FB002003EBA505821036
:103A200017E0A36BA78958435A4340114FEA62122B
:103A30006FB1D4E90B67636A00FB07F506FB12550B
:103A40007A4306FB002003EBA525821201E0636A9E
:103A5000C518002D4FF0000064D4B4F904302E12C4
:103A60009E425FDAA06A12EB000A4FF0000059D4C0
:103A7000B4F906204FEA2A2B934553DA94F8340020
:103A8000420715D4238A04F118080FFA86F90FFAB1
:103A90008BF7404649463A4616F012FBA082404654
:103AA00049463A4616F090FA00274FF000081AE00F
:103AB0000BFB036280070AD44FEA420804F11400AA
:103AC00001EB42010222022719F0B2F90CE002EBED
:103AD000420801EB080704F114003946022219F0EC
:103AE000A7F9B8780327A07594F83400C00709D067
:103AF00012F01CFBA18A80B2814203D1002001B0E8
:103B0000BDE8F08FE07C80B12046A587A4F83EA0F8
:103B1000A4F84060A4F842B0C4F8448084F8487027
:103B200000F008F801B0BDE8F08F012001B0BDE859
:103B3000F08F00002DE9F04F87B090F83C1004465C
:103B4000056890F83E006F290DD8B4F94020002791
:103B5000002A6FF07F02C8BF4FF0FF3781EA0203EF
:103B60006F2810D822E091294FF000071BD3B4F939
:103B70004020B4F9043001329A42C1F17F03B8BF4A
:103B800001276F2812D991284FF000081BD3B4F9F0
:103B90004210B4F906200131C0F17F0A9142B8BF4A
:103BA0004FF0010811E0FF236F28ECD8B4F9421060
:103BB0004FF0000800296FF07F01C8BF4FF0FF38B9
:103BC00080EA010A01E04FF0FF0A94F83400B4F8EB
:103BD00014B0A67D4007039353D4B4F8400004F119
:103BE00018053844B4F94220238A01B2284616F059
:103BF00067FAADF81800B4F84200B4F94010404438
:103C0000238A02B2284616F05BFAADF81400B4F825
:103C10004000B4F84210384401EB0802238A01B294
:103C200012B2284616F04CFA94F83410ADF8100091
:103C3000890750D5CDF804B0B4F940B00096B4F976
:103C400042600BEB0700CDF808A00FFA80FA284677
:103C50005146324616F0B8F9814606EB080006B226
:103C600028465946DDF804B0324616F0ADF98046D4
:103C700028465146DDF808A03246009E16F0A4F909
:103C800047E0606C94F84810022207FB01002918F5
:103C900006A819F0CDF8B4F90410606C94F8482027
:103CA00008FB01F101FB02000222291805A819F006
:103CB000BFF8B4F90410606C94F8482008FB017157
:103CC00001FB02000222291804A819F0B1F894F8A7
:103CD0003400800705D400204FF000084FF00009A1
:103CE00017E094F84800616C421E5318B646B4F9C8
:103CF000046007FB003C08FB00F303FB061107FB15
:103D000000205318084415F80C9015F80380285C1F
:103D1000764694F83410039F890703D4FF203D466C
:103D2000A07527E0F9B281F0FF0202FB09F316FB50
:103D3000013308FB01F112FB0011C3F30722B44663
:103D40005FFA8AF602FB06F5C1F3072386F0FF014E
:103D500013FB01560021032A4FF0000538BF01254F
:103D6000032B38BF012129404FEA1626A67508D03B
:103D70003D4621BBFAB2FF2A2BD022BBBDF818B0BA
:103D800027E0032A38BF4FF0000A032B38BF4FF05B
:103D9000FF3ABCF1030F3A4638BF0022B9F1030FD6
:103DA00038BF4FF0FF32B8F1030F38BF00270328A8
:103DB00038BF4FF0FF373D4617460029DAD00020C4
:103DC00007B0BDE8F08FBDF81810584612F0F0FAB1
:103DD0008346EAB2FF2A03D02AB9BDF8100008E0F2
:103DE000BDF8140005E0BDF81400BDF8101012F085
:103DF000DFFA5FFA8AF24AB1FF2A01D1584605E09C
:103E00001FFA8BF381B2184612F0D2FAA082012079
:103E100007B0BDE8F08F00002DE9F0470446B0F987
:103E20000800B4F90A10B4F90C2046F267680002E1
:103E30000902C6F26668C4E9090152FB08F0811064
:103E400001EBD07606EB8600A2EB4005704200B293
:103E500021F004FC8146F04300B221F0FFFB8246D2
:103E6000C6F15A0000B221F0F9FB0746C6F159002D
:103E700000B221F0F3FBC5F10A0105FB0AF201FBD8
:103E80000922684301FB070052FB08F2931050FB24
:103E900008F003EBD271821002EBD0704211A07CCB
:103EA0004911E162226316F0AFF994F83420A17C45
:103EB00002F0FE02104484F83400084616F098F927
:103EC00094F83410A27C01F0F90160F34101101F55
:103ED0000023032838BF012341EA8300216884F8C6
:103EE000340002F01F0020762046216230F8191FAE
:103EF000A28801F0030141EA8201E2886FF35F3199
:103F0000E38941EA4231D20882705A0802F5001270
:103F1000B2FBF3F20180218AFF20A263A075A18287
:103F2000BDE8F087F0B581B016460C46074621F093
:103F3000B9F8A2B240F24844C2F200040546204655
:103F40003946334616F038FD68B1E0690021A162B8
:103F500018B9284621F0A0F8E061E069002804BF04
:103F60000120E06107E020462C2118F0DFFF4FF030
:103F70000040A0620024204601B0F0BD10B540F220
:103F80007440C2F20000142100F0C6F816F0CEFC16
:103F9000E0B14AF2D521C0F60101044616F09AFDBF
:103FA0004AF21D71C0F60101204616F095FD4AF651
:103FB0008D01C0F60101204616F090FD4AF29D21C8
:103FC000C0F60101204616F083FD10BDFEE700009B
:103FD000F0B585B004460D4610B134B905B0F0BD5A
:103FE00012F0C4FF0446002CF8D00020BDB30290AC
:103FF000204612F0D3FF0138ADF80C00204613F034
:1040000025F80138ADF80E00684602AA2946FFF7E8
:10401000C1F80028E2D02068017C890723D4826996
:104020000AB169469047B4F8540188B104F13405E7
:1040300000276E46304629460022FFF7D9F80028AF
:10404000CCD1B4F854010137874205F10805F1D30A
:104050001F280ED804EBC000343069460FE0A4F8E6
:10406000540105B0F0BDDDE90201C4E90D010121F3
:104070000AE00020A4F8540104F1340002A90FF072
:10408000B7FFB4F85401411C6068A4F8541121F042
:10409000B3F905B0F0BD000070B5044600F014F8A7
:1040A000002808BF70BD05462046294600F026F8C6
:1040B00006462046294600F081F8284618F076FD8D
:1040C000002E3546F0D170BD002814BF4068002096
:1040D00070470000B0B50446FFF7F6FF58B101463F
:1040E000002500BF2046013500F008F801460028F1
:1040F000F8D12846B0BD0020B0BD000000680844DB
:10410000406870470068085870470000002814BFD6
:1041100080680020704700000331002221F0030175
:10412000C0E9001282607047B0B5044600680830EC
:1041300018F082FC0546A0B120462946002222F054
:10414000E5FC62682046294622F0D8FC616819B176
:1041500020462A4622F0DAFCA0686560002808BFE5
:10416000A5602846B0BD0000B0B504460068083020
:1041700018F062FC0546A0B120462946002222F034
:10418000BDFCA2682046294622F0C0FCA16819B1F6
:1041900020462A4622F0B2FC6068A560002808BFCD
:1041A00065602846B0BD000028B1416809B9806843
:1041B00008B10020704701207047000070B500284A
:1041C00008BF70BD04460D46FFF77EFFA8421AD017
:1041D0002046FFF79BFF064620462946FFF792FF41
:1041E000AE4206461BD020462946FFF787FF05460C
:1041F000204631462A4622F081FC20462946324696
:1042000022F084FC70BD20462946FFF777FF6060EE
:1042100068B101462046002222F078FC70BDA660FD
:1042200046B120463146002222F068FC70BD0020D5
:10423000A06070BD0020606070BD000010B5044635
:10424000006882680AB1214690472068006800280B
:1042500008BF10BD20602046FFF7F0FF10BD000032
:104260008068002814BFC08A002000B27047000098
:104270002DE9F04F91B00446408CDDF868B040F075
:104280000400608422841646BBF8082020461F469E
:104290008A461BF0C3FD2784BBF80820054620464C
:1042A00051461BF0BBFD618C814621F004004D4559
:1042B000608406D104BF89EA05005FEA004000F08F
:1042C00087802684BBF80820204651461BF0A6FDB7
:1042D00080462046514627840DF0FAFD0068BBF861
:1042E000081042461FF050FCBBF80800602828D197
:1042F00047F6FF76B14518BFB04522D120461CF0E5
:104300004BF881B200EBD13000B2451020461CF0D2
:1043100043F881B200EBD13000B2B0454FEA600003
:1043200005D1691C00F101084145B8BF884647F630
:10433000FF71894505D1691C00F101094945B8BFE4
:10434000894640F29040C2F20000FFF7EDFE0028DF
:1043500042D0C0E9038904600646BBF8080001ACFE
:10436000B0802046C6F808A00FF054F82046314629
:104370000FF084F94BF60D21C0F6020120460FF034
:10438000C7F820460FF036F94BF67531C0F602013A
:1043900020460FF003F920460021FF220FF046F9D6
:1043A000BBF8001020460FF02DF9BBF80210204694
:1043B0000FF0A0F8DBF80C1020460FF0CBF82046E9
:1043C0000FF09CF8DBF81000069020460FF074F90F
:1043D00011B0BDE8F08F00BFFEE7000080B540F2ED
:1043E0009040C2F200001421FFF796FE80BD00004D
:1043F0002DE9F04F81B00446408C10F4FC7F00F0B2
:104400002C816FEA01096FEA020B4FF0000AE846BF
:1044100000250AE00120002800F02281608C01358F
:10442000C0F3C500854280F01D81E66806EBC5003B
:1044300040688101F2D420F07F401DF095FD10EA24
:10444000090100EA0B00B0FA80F04FEA501018BFE3
:1044500001214140DED156F8356041F61001304669
:1044600042461FF00FF9002878D1304641F611017D
:1044700042461FF007F9002870D1304641F612017C
:1044800042461FF0FFF8002868D1304641F613017C
:1044900042461FF0F7F8002860D1304641F615017A
:1044A00042461FF0EFF8002858D1304641F614017B
:1044B00042461FF0E7F8002850D1304641F269012A
:1044C00042461FF0DFF8002848D1304643F20C0185
:1044D00042461FF0D7F8002840D1304643F20D0184
:1044E00042461FF0CFF8C8BB304641F201014246B8
:1044F0001FF0C8F890BB304641F2040142461FF05D
:10450000C1F858BB304641F2020142461FF0BAF8EA
:1045100020BB304641F2030142461FF0B3F8E8B930
:10452000304641F2050142461FF0ACF8B0B93046C2
:1045300041F2060142461FF0A5F878B9304641F233
:10454000320142461FF09EF840B9304643F60F0153
:1045500042461FF097F8002872D000BF0127002FB5
:1045600060D1304640F60A0142461FF08BF8002821
:1045700056D1304640F60B0142461FF083F8002822
:104580004ED1304643F60F0142461FF07BF800281B
:1045900046D1304643F60E0142461FF073F800281C
:1045A0003ED1304640F63C0142461FF06BF8B8BBA6
:1045B000304640F63D0142461FF064F880BB30466D
:1045C00040F63A0142461FF05DF848BB30464FF4D2
:1045D000046142461FF056F810BB304640F64501D4
:1045E00042461FF04FF8D8B9304640F641014246E6
:1045F0001FF048F8A0B9304640F6420142461FF08D
:1046000041F868B9304640F6430142461FF03AF897
:1046100030B9304640F6490142461FF033F848B100
:104620004FF0020A002F3FF4F5AE002000287FF47F
:10463000F5AE15E0BAF1000F08BF4FF0010AF1E73F
:10464000304643F60E0142461FF01CF8074600288C
:1046500018BF0127002FE5D183E74FF0000A01E0E2
:104660004FF0030A5FFA8AF001B0BDE8F08F000056
:1046700040F20050C2F2000000687047704700002E
:10468000C0F30410072828BF0720704780B540F208
:10469000A440C2F200001821FFF73EFD012020F0E7
:1046A000BBFD80BD2DE9F041F8B1164604460D462C
:1046B000FBF797FE40F20C08C2F20008D8F8002081
:1046C0000746204629469047D8F800200546204452
:1046D00031469047391A8D4288BFBDE8F0812044A9
:1046E000425D625501358D42FAD9BDE8F081000086
:1046F0002DE9F04140F21408C2F200081446D8F83F
:1047000000200F4619461D4606469047386040B1C6
:104710002868D8F800203044002190472060BDE888
:10472000F08100202060BDE8F08100002DE9F04F0D
:1047300087B008B304460F4600294FF0000075D03B
:104740002178002972D0DDF8408018F0060F17D0CC
:104750000020012142F2014201E000BF0130235C50
:104760000D2BFBD801FA03F71742F7D0002B18BF27
:10477000013007B0BDE8F08F002007B0BDE8F08F32
:104780001D460020012B8DF81B00059043DB20788F
:10479000002840D016464FF000090DF11B0A0DF11C
:1047A000100B2046002100BFB1FA81F149090391A5
:1047B0002BB239463246CDF81090CDE9008BCDF8BA
:1047C00008A020F07DFFE0B1059B2278BDF8101015
:1047D00018440A2A05901ED00D2A1CD0225C0D2AEE
:1047E0000CD00A2A0AD0681A05B2012D13DB0599EC
:1047F000605C002804EB0100D6D10CE0013005908C
:1048000009E0059838B940F21400C2F200000268CD
:1048100005A920469047059838B940F21400C2F225
:104820000000026805A920469047059807B0BDE83A
:10483000F08F00002DE9F04381B030B3144622B36D
:10484000054620468846FBF7CCFDF0B106462846D3
:10485000FBF7C7FD074640F20C00C2F200000268F9
:104860002846414607EB060990478119894507D339
:10487000AA1900BFEB5DD355013FF3198B42F9D262
:1048800028442146324618F0EFFA01B0BDE8F08323
:10489000A0F59C4145F2A61291423CBF0120704711
:1048A000202802BF002181F00100704745F28E2CC4
:1048B0000122C0F6040C00BFD11FB1FA81F14FEA0A
:1048C000511104D01CF8023001328342F4D181F03E
:1048D0000100704723290AD103780022022B08D057
:1048E000012B09D0002B04BF0122027006E0002238
:1048F00004E00270012201E0002202700378012B23
:1049000006D120291CBF012070470221012201701D
:10491000104670472DE9F04182B004460B46CDE9C0
:1049200000110020002122464FF0000821F0B2F9CA
:10493000451C0746284618F07FF858B100F8078054
:10494000019B29462246064621F0A4F9304602B0D2
:10495000BDE8F081FEE700002DE9F04702B3DDF885
:1049600020909A4614460F46804606E064F0010007
:104970003044441C05EB0A0774B1660806FB0A754F
:1049800040462946C8470128F0DAB0F1FF3F3446D7
:10499000F2DD2846BDE8F08700252846BDE8F0870F
:1049A0000020BDE8F08700002DE9F04F85B0149C91
:1049B0000DF138099246DDE9122599E8C0028B46CF
:1049C000A107804635D44DB1E00708D014F00C00A3
:1049D00018BF012040EA09002D1A00E00025974287
:1049E00019D21F2F17D8F94311444446C7F11F08A5
:1049F000F019414538BF884608F101013022994637
:104A0000FBF70EFD129A4B46DDF8409008EB0700CD
:104A1000A046149C471CE0070BD0AF4209D21F2FC1
:104A200007D8302039460137AF42705438BF202FA5
:104A3000F8D3E00629D5119861050CD45FB19742EF
:104A400018BFAF4207D1791E0A4618BFBA1E1028F8
:104A500018BF0A46174610280BD114F0200103D1C5
:104A6000202F01D2782009E019B1202F01D258203F
:104A700004E0022804D11F2F02D86220F05501372C
:104A80001F2F9EBF3020F05501371F2F11D8B9F1CD
:104A9000000F03D02D20F05501370AE0600705D440
:104AA000200742BF2020F055013702E02B20F055AF
:104AB0000137404659465246CDE9006702950394B6
:104AC00000F0A6F805B0BDE8F08F00002DE9F04F2A
:104AD00091B01646DDE91AC21F46DDE91CB3DDF8C8
:104AE0007C90BCF1000F08BF29F01009BCF1000F49
:104AF000CDE9076704D119F4806401D000241EE0D9
:104B000009F0200484F0610404F1F60800250DF199
:104B1000240A00BFBCFBFBF7464607FB1BC404F09E
:104B2000FE0EBEF10A0F38BF302626446C1CDC4551
:104B30000AF8056003D31F2D2546BC46EAD309AF0A
:104B4000CDE90074CDE9022B0493DDE907231E9F14
:104B5000CDF818900597FFF727FF11B0BDE8F08F4B
:104B60002DE9F04F93B0DDE91C65DDF8908056EA41
:104B70000507209C08BF28F010080DF11C0C8CE8DC
:104B80000F0027B918F4806701D0002227E008F051
:104B90002000219F80F0610000F1F6094FF0000A2B
:104BA0000DF12C0B3046294622463B46FBF77DFB98
:104BB00000FB146202F0FE030A2B4B4638BF302381
:104BC000361B13440AF1010275EB07060BF80A3095
:104BD00005D3BAF11F0F924606460D46E2D30BA845
:104BE000CDE900021E9807ABCDE902042298239F6D
:104BF00004900FCBCDF818800597FFF7D5FE13B0C2
:104C0000BDE8F08F9A4238BF885470477047000063
:104C10002DE9F04F83B0DDF83C80DDF834A09946F3
:104C200015468B4606465FEA8870144610D10E98EA
:104C30002C4682450CD20E982A46A0EB0A0700BFEC
:104C4000202059464B46541CB047013F2246F7D11D
:104C5000BAF1000F08F002000195029010D00C98F4
:104C6000A0F1010818F80A00594622464B46AAF15D
:104C70000105671CB047002D3C46AA46F2D100E072
:104C80002746029888B10199DDF83880781A4045A6
:104C90000DD24D42202059463A464B467C1CB04727
:104CA000281940452746F5D302E03C4600E03C4643
:104CB000204603B0BDE8F08F024659B10278002AC1
:104CC000024607D04942024612F8013F013101D2A3
:104CD000002BF9D1101A7047704700002DE9F04FF2
:104CE00091B08A461A9944F60D461446C0F600065D
:104CF0004FF0000B4FF000080E911093BAF1000F27
:104D000018BF064610990878002800F078822528F8
:104D100009D0F0E0514642462346B0471098A846D5
:104D200001301090EEE7481C4FF00009109004E0AD
:104D3000481C10900020002822D110990878A0F17A
:104D40002002102A4FF00100F5D8DFE802F00D0C28
:104D50000C090C0C0C0C0C0C0C100C130C0C16008D
:104D600049F01009E4E7E6E749F00809E0E749F00F
:104D70000409DDE749F00209DAE749F00109D7E75C
:104D8000109D2F783846FEF7DFF918B110A8FEF70E
:104D9000BBF913E02A2F10D10E9951F8040B00280B
:104DA0000E910D9044BF41420D91002805F1010084
:104DB00048BF49F00209109001E000200D90109DBD
:104DC00028782E2819D1681C10906F7849F48069D2
:104DD0003846FEF7B9F920B110A8FEF795F9054657
:104DE0000CE02A2F09D10E9951F8040B0E9120EAFC
:104DF000E071A81C0D46109000E000251098017885
:104E000068394FEA7101092917D8DFE801F0081263
:104E10007B1616160516160549F480790BE0411C21
:104E200010914178682940F07F8049F0C009023034
:104E300002E049F4007901301090109A1078A0F146
:104E40002503532B00F257801021DFE813F0A80050
:104E500054005400540054005400540054005400B2
:104E600054005400540054005400540054005400A2
:104E70005400540054005400540054005400540092
:104E80005400540054005400540054005400540082
:104E90005400540054005400540054005400540072
:104EA0005400540064005400540054005400540052
:104EB00054005400AD0054005400540054005400F9
:104EC0005400540054005400AC003E0157005400FC
:104ED000540054005400570054005400540054002F
:104EE00054007300640054005400750054005700CF
:104EF00054005400AD0008F101050BE729F010093A
:104F00000A2151E0411C109141786C290FD149F4DC
:104F10004079023090E712F8010F49F48879562859
:104F200008BF109210213FE049F0800985E749F45D
:104F3000807982E7082137E00E98294650F8047BF3
:104F4000002D0E90384608BF4FF0FF31FFF7B4FE3A
:104F500009F4806BA842294638BF0146BBF1000F17
:104F600008BF014619F002000C9040F0D7800D9860
:104F7000814280F0EF800A97A946421C471A00251B
:104F80000B9200BF08EB0502202051462346B04794
:104F90000135AF42F6D10A9FA8444D46DCE008F146
:104FA00001052520B6E602211098007840F008029D
:104FB000582A08BF49F02009642803D0692818BF7F
:104FC00029F00C095FEA495248BF29F00109562827
:104FD00014D0692801D0642822D15FEA89502FD4E7
:104FE0005FEAC9504ED45FEA496000F185800E98AF
:104FF0005FEA0962006848BF00B27FE00E99A4EB47
:10500000080251F8040B0E9141680F680AEB080181
:105010000F97036830460097FFF760FE804495E0E5
:105020005FEA895037D45FEAC95072D45FEA4960B9
:1050300079D40E9B5FEA0962186848BF80B274E0B9
:105040000E98073020F007000346426853F8080B1B
:10505000CDE9041B10EBE2700E9342EBE2730D9965
:1050600083EAE27380EAE270CDE90719D70FCDE950
:105070000003304651464246234606950297FFF705
:105080006FFD62E00E9A52F8040B0E920246002861
:1050900048BF424239E00E98073020F0070003462F
:1050A000426853F8080BCDE9041B0D990E93CDE926
:1050B0000719CDE90002304651464246234606957F
:1050C000CDF808B0FFF74CFD3FE019F0020927D1F9
:1050D0000D9802286DD300F1010B4542002700BF57
:1050E00008EB0702202051462346B0470137E81954
:1050F0000130F5D1B8445EE00E98007802460028F1
:1051000048BF42420E9B04330E93C00FCDE90020EE
:105110000FE00E9A52F8040B0E9208E00B911BE080
:105120004FF0010B47E00E9B187804330E93CDE946
:10513000000B0D98CDE902150490304651464246C9
:105140002346CDF81490FFF7C1FC8046109801303B
:105150001090D7E5481C0B903878A0B107F10109F1
:105160000BE000BFC0B251464246234608F101079A
:10517000B04719F8010BB84630B1BBF1000FF1D0C0
:105180000DB1013DEEE747460C98A0B30D980B9981
:10519000814230D2451A4FF0000B00BF202051460B
:1051A0003A46234607F10108B047013D4746F5D18D
:1051B000CCE74FF0020B0E99424611F8040B234640
:1051C0000E91514608F10107B047B9F1000F12D016
:1051D0000D9883450FD2A0EB0B054FF0000B00BFDD
:1051E000202051463A46234607F10108B047013DC9
:1051F0004746F5D1AAE7B8464FF0000BA6E742466E
:10520000002051462346A04528BF621EB0474046B5
:1052100011B0BDE8F08F000010B54FF0000448B1A8
:1052200000F018F80C28014698BF0C21B0F5803F1B
:1052300038BF0C46204610BD20F003007047000028
:105240004A1E114204D108440138494208407047BF
:10525000FEE700004A1E114204D1084401384942C9
:1052600008407047FEE700002DE9F0410446086859
:105270000D4601216186C0B145F296280026C0F690
:105280000408002706E000BF01370136B0B255F828
:10529000200058B1017849B14146FBF71DF90028BB
:1052A000F2D1608E01306086EFE70027208EBDB21C
:1052B000854208BFBDE8F081A06A18B117F076FCFE
:1052C0000020A062E06A18B117F070FC0020E062D4
:1052D000E80017F0B1FBA06280B1680017F0ACFBEA
:1052E000E06268B1A16A002908BF0F46B9B249005F
:1052F00017F01CFE2786BDE8F08100BFFEE700BF67
:10530000FEE700002DE9F04F95B0042104461CF0A3
:1053100051FA2046049418F0E5FC012105460126C7
:105320001CF058FA40F2280140F22E02C2F20001AD
:10533000C2F2000228461CF089FA284642F26401B3
:105340001CF09AFA28464FF49671002200271CF0B0
:10535000E5FC284616F002FA0FF66841044617F0FD
:10536000F9F844F2E461C2F201012046002218F08B
:105370009DF82046002100220223CDE90077029605
:105380001CF034FA284610F021F940F2D44BC2F256
:10539000000BCBF8000014F075FDDBF8001014F0E2
:1053A00021FDDBF800004FF4007118F03BF8DBF84A
:1053B00000000321CDE900160321012201230296FA
:1053C0001CF014FADBF8000050210522CDE900267C
:1053D0000391002100220023029610F0D1FADBF89D
:1053E00000000C213227CDE9001602210022002303
:1053F0000296039710F0C4FADBF8000000210C229B
:1054000010F0E6FADBF800000C2110F00FFBDBF8DF
:10541000000047F22521C0F600010022002317F00A
:10542000D1FF40F20550C2F20000007828B1049E7E
:10543000012809D14FF4007102E0049E4FF440713D
:10544000DBF8000010F084FBDBF8000005210022EF
:105450004FF005094FF000081CF0ACFBDBF8000032
:10546000002100221CF0E0FCDBF8004020461FF089
:10547000FDFD81B22046002210F028F844F2846736
:10548000C2F201070446DBF8005038600A205021C0
:105490004FF0500A1CF034FE02B22846214610F0AC
:1054A000A9FADBF800403D680A2050211CF028FED4
:1054B00002B22046294610F09DFADBF800403D6814
:1054C0000A2050211CF01CFE02B22046294610F092
:1054D00091FADBF800403D680A2050211CF010FED4
:1054E00002B22046294610F085FADBF800403D68FC
:1054F0000A2050211CF004FE02B22046294610F07A
:1055000079FADBF800403D680A2050211CF0F8FDD4
:1055100002B22046294610F06DFADBF800403D68E3
:105520000A2050211CF0ECFD02B22046294610F062
:1055300061FADBF800403D680A2050211CF0E0FDD4
:1055400002B22046294610F055FADBF800403D68CB
:105550000A2050211CF0D4FD02B22046294610F04A
:1055600049FADBF800403D680A2050211CF0C8FDD4
:1055700002B22046294610F03DFADBF800403D68B3
:105580000A2050211CF0BCFD02B22046294610F032
:1055900031FADBF800403D680A2050211CF0B0FDD4
:1055A00002B22046294610F025FADBF800403D689B
:1055B0000A2050211CF0A4FD02B22046294610F01A
:1055C00019FA304618F08EFB4FF40001054617F02B
:1055D00029FF2846012101261CF0FCF8284642F24A
:1055E00064011CF049F928464FF4967100221CF022
:1055F00095FB40F2280140F22E02C2F20001C2F2F5
:10560000000228461CF022F9284616F0A7F80FF6EB
:10561000C411044616F09EFF44F2E461C2F2010197
:105620002046002217F042FF2046002100220223DC
:10563000CDE9008802961CF0D9F828460FF0C6FF85
:1056400040F2D847C2F20007386014F01BFC3968FA
:1056500014F0C8FB38684FF4007117F0E3FE3868A7
:105660000321CDE9001603210122012302961CF03B
:10567000BDF83868002100220023CDE90096CDF85E
:105680000CA0029610F07CF938680C213225CDE987
:1056900000160221002200230296039510F070F9F3
:1056A000386842F2640142F264021CF067F938681B
:1056B000022110F003FA38680621002210F088F960
:1056C00038680C2110F0B2F9386847F22521C0F68D
:1056D00000010022002317F075FE38684FF40071B6
:1056E00010F036FA3868052100221CF063FA386899
:1056F000002100221CF098FB40F20550C2F200008D
:105700000078022808D060B9386800214FF4A02240
:105710001CF052FB022100E01021386800221CF02E
:105720004BFB3C68122001211CF052FC81B2204648
:1057300000220FF0CBFE44F28866C2F20106044656
:105740003D6830600A2050211CF0DAFC02B2284685
:10575000214610F04FF93C6835680A2050211CF0B2
:10576000CFFC02B22046294610F044F93C68356867
:105770000A2050211CF0C4FC02B22046294610F039
:1057800039F93C6835680A2050211CF0B9FC02B296
:105790002046294610F02EF93C6835680A20502131
:1057A0001CF0AEFC02B22046294610F023F93C68FA
:1057B00035680A2050211CF0A3FC02B2204629467D
:1057C00010F018F93C6835680A2050211CF098FC4C
:1057D00002B22046294610F00DF93C6835680A20CF
:1057E00050211CF08DFC02B22046294610F002F92F
:1057F0003C6835680A2050211CF082FC02B2204629
:10580000294610F0F7F83C6835680A2050211CF052
:1058100077FC02B22046294610F0ECF83C68356867
:105820000A2050211CF06CFC02B22046294610F0E0
:10583000E1F83C6835680A2050211CF061FC02B296
:105840002046294610F0D6F83C6835680A205021D9
:105850001CF056FC02B22046294610F0CBF8DBF8CB
:1058600000003C681FF002FC81B2204600220FF0CD
:105870002DFE44F28C66C2F2010604463D6830609B
:105880000A2050211CF03CFC02B22846214610F0B0
:10589000B1F83C6835680A2050211CF031FC02B296
:1058A0002046294610F0A6F83C6835680A205021A9
:1058B0001CF026FC02B22046294610F09BF83C68FA
:1058C00035680A2050211CF01BFC02B220462946F4
:1058D00010F090F83C6835680A2050211CF010FC4C
:1058E00002B22046294610F085F83C6835680A2047
:1058F00050211CF005FC02B22046294610F07AF82F
:105900003C6835680A2050211CF0FAFB02B22046A0
:10591000294610F06FF83C6835680A2050211CF0C9
:10592000EFFB02B22046294610F064F83C68356867
:105930000A2050211CF0E4FB02B22046294610F058
:1059400059F83C6835680A2050211CF0D9FB02B296
:105950002046294610F04EF83C6835680A20502150
:105960001CF0CEFB02B22046294610F043F83C68FA
:1059700035680A2050211CF0C3FB02B2204629469C
:1059800010F038F83C6835680A2050211CF0B8FB4C
:1059900002B22046294610F02DF8DDF810A00FF2D3
:1059A00044670FF24C610FF258620FF26463504685
:1059B000009702F0C1FE44F20067C2F201073860AE
:1059C00018F070FE4FF4000117F02CFD386817F046
:1059D00085FB396805464FF487704FF05A080090F0
:1059E0000846294600226423CDF8048017F0D2FC33
:1059F0003C6810F047FB1FFA80F94FF0000B20467F
:105A0000294600220023CDF800B0CDF8049017F00D
:105A1000CDFC05AE30460DF0FDFC3046142164226D
:105A20000DF026FE30460DF0DFFD3C6805201CF031
:105A3000E5FA83B2204629460F22CDF800B017F0D0
:105A400005FB46F215510446C0F6020130460DF042
:105A500079FD304621460DF01FFE304641F204012B
:105A60000DF0DEFD304640F68C210DF08FFD304606
:105A70000DF022FE3C6800201CF0C0FA83B26FF0EB
:105A8000130B204629460F22CDF800B017F0DEFA9E
:105A900046F259510446C0F6020130460DF052FD5F
:105AA000304621460DF0F8FD304640F628210DF035
:105AB000B7FD30464FF448610DF068FD30460A945A
:105AC0000DF0FAFD3C6809201CF098FA83B2ABF1A6
:105AD0001407204629460F22009717F0B7FA46F21E
